:020000040800F2
:10000000C0090020ED0100080F4D00081948000844
:100010000D4D0008250B00082561000800000000B8
:10002000000000000000000000000000C1500008B7
:10003000EF0B000800000000114D000839540008C3
:10004000070200080702000807020008070200086C
:10005000070200080702000807020008070200085C
:10006000070200080702000807020008290B000821
:10007000350B0008410B00080702000807020008C2
:100080000702000807020008E50900080702000847
:10009000070200080702000807020008070200081C
:1000A000B154000807020008070200080702000810
:1000B00007020008070200080702000807020008FC
:1000C000070200080702000807020008154D000893
:1000D00007020008FD600008070200080702000888
:1000E00007020008070200080702000807020008CC
:1000F00007020008070200080702000807020008BC
:1001000007020008070200080702000807020008AB
:10011000070200080702000807020008070200089B
:10012000070200080702000807020008070200088B
:10013000070200080702000807020008070200087B
:10014000070200080702000807020008070200086B
:10015000070200080702000807020008070200085B
:10016000070200080702000807020008070200084B
:10017000070200080702000807020008070200083B
:10018000070200080702000807020008070200082B
:10019000070200080000000007020008070200082C
:1001A000070200080702000807020008070200080B
:1001B00007020008070200080702000807020008FB
:1001C00007020008070200080702000807020008EB
:1001D0000702000807020008DFF80CD000F040FB1F
:1001E00000480047D96B0008C00900200648804736
:1001F00006480047FEE7FEE7FEE7FEE7FEE7FEE70C
:10020000FEE7FEE7FEE7FEE7A1540008D90100087B
:100210002DE9F05F0546002092469B46884606463B
:10022000814640241BE0284641464746224600F0CE
:10023000DAF953465A46C01A914110D3114618466E
:10024000224600F0C1F92D1A67EB01084F462246FD
:100250000120002100F0B8F917EB00094E41201EE3
:10026000A4F10104DFDC484631462A464346BDE896
:10027000F09F40EA01039B0703D009E008C9121F61
:1002800008C0042AFAD203E011F8013B00F8013B50
:10029000521EF9D27047D2B201E000F8012B491E7C
:1002A000FBD270470022F6E710B513460A46044613
:1002B0001946FFF7F0FF204610BD2DE9FE4F80469E
:1002C00081EA0300C00F0C46009021F0004123F0AA
:1002D0000045B8EB0200A94105D2404621469046B0
:1002E0001C460B46024623F00040104347D0270D22
:1002F000C7F30A00C3F30A510290401A0190402844
:100300006BDAC3F3130040F4801B0098924620B1CF
:100310000023D2EB030A63EB0B0B01985946C0F1A3
:100320004002504600F050F906460D4650465946E8
:10033000019A00F068F910EB08006141002487EA97
:10034000115284EAE7731A4340D0009A62B3019ACB
:10035000012A4FEA075215DC001B61EB02014FF046
:10036000004202EA0752CDE90042001C41F580112B
:1003700032462B4600F09FF903B0BDE8F08F4046AF
:100380002146F9E7001B61EB0201001C41F58013D7
:1003900000185B412018A2F5001747EB030140EA63
:1003A000D570B6196D4111E06D084FEA360645EA81
:1003B000C0754FEA0752001B61EB0201001C41F5BA
:1003C000801149084FEA30000019514132462B464E
:1003D00003B0BDE8F04F00F05FB900980122400083
:1003E0000023D0EB020263EBE073009821464FEA52
:1003F000E074B8EB000061EB0401E9E783F000432F
:100400005BE781F0004158E72DE9FE4F81EA0304E4
:1004100004F0004421F0004100944FF0000B23F061
:10042000004350EA01045ED052EA03045BD0C3F3F8
:100430000A54C1F30A552C44A4F2F3340194A0FBEE
:100440000254C1F3130141F48011C3F3130343F4C5
:10045000801301FB024400FB034E840A970A44EA1E
:10046000815447EA8357A4FB076802958D0A05FB70
:1004700007854FEA932C04FB0C542705029D4FEA95
:10048000065847EA1637B5EB08056EEB070C870EE2
:10049000920E47EA811742EA8312A7FB0201B6EBEC
:1004A0000B0164EB00042B0D43EA0C335E1844EBA4
:1004B0001C50DA465146E7FB0201C5F313044FEA2C
:1004C0000B3343EA14534FEA0432019C43EA060318
:1004D000A4F10C040294009CCDE900B400F0EBF808
:1004E00003B0BDE8F08F00200146F9E70EB5C10F5B
:1004F00080EAE0700844CA07002140F233438DE8E7
:100500000E000A460B4600F0D6F803B000BD00F01E
:10051000004230F000400AD0C10D01F56071C0F317
:10052000160042EA0151C2084007114370470020FB
:100530000146704730B5041E71F1000404DB4FF032
:100540000044404264EB0101141E73F1000405DB1A
:100550001C464FF00043524263EB0403994208BF2C
:10056000904230BD01F0004330B421F0004150EA28
:10057000010206D00A0DA2F56072C1F31301002A30
:1005800002DC30BC00207047440F44EAC104C100C3
:10059000E01830BC00EBC25000F047B830B50B4655
:1005A000014600202022012409E021FA02F59D42A3
:1005B00005D303FA02F5491B04FA02F52844151E77
:1005C000A2F10102F1DC30BD202A04DB203A00FA5E
:1005D00002F1002070479140C2F1200320FA03F39A
:1005E000194390407047202A04DB203A21FA02F098
:1005F0000021704721FA02F3D040C2F1200291405D
:10060000084319467047202A06DBCB17203A41FAE7
:1006100002F043EAE07306E041FA02F3D040C2F18F
:10062000200291400843194670470029A8BF70472F
:10063000401C490008BF20F00100704710B4B0FA18
:1006400080FC00FA0CF050EA010404BF10BC7047B3
:1006500049B1CCF1200421FA04F411FA0CF118BFCD
:10066000012121430843A3EB0C01CB1D4FEA00619C
:100670004FEA102042BF002010BC704700EBC3506F
:1006800010440029A4BF10BC7047401C490008BF9B
:1006900020F0010010BC704710B5141E73F1000467
:1006A00008DA401C41F1000192185B411A4301D164
:1006B00020F0010010BD2DE9F04D92469B4611B18E
:1006C000B1FA81F202E0B0FA80F220329046FFF7F0
:1006D0007BFF04460F4640EA0A0041EA0B015346FD
:1006E0005A46084313D0114653EA010019D0C8F105
:1006F00040025046FFF777FF05460E4650465946E2
:100700004246FFF761FF084305D0012004E0204680
:100710003946BDE8F08D0020054346EAE0762C43DB
:1007200037430A986305E40AA0EB08000022FD0A9B
:1007300044EA47540A3002D500200146E9E70105A2
:1007400010196941DDE9084500196941BDE8F04D1E
:10075000A2E72DE9F04D81EA030404F0004B21F0FB
:10076000004514464FF0000A23F0004150EA05020C
:1007700020D054EA01021DD0C5F30A570246C5F342
:100780001303C1F31300C1F30A5640F4801543F478
:100790008013A7EB0608101BD64608F2FD3873EB52
:1007A000050002D308F1010801E092185B41B8F19D
:1007B000000F03DA00200146BDE8F08D00204FF461
:1007C0008011064684460EE0171B73EB050705D320
:1007D000121B63EB050306434CEA010C49084FEA80
:1007E000300092185B4150EA0107EDD152EA030054
:1007F00012D082EA040083EA0501084305D0101BE9
:10080000AB4106D20122002306E000224FF0004354
:1008100002E06FF0010253101AEB06004CEB085196
:1008200010EB0A0041EB0B01BDE8F04DFFF734BFC0
:10083000C1F30A52C1F3130140F2FF3341F48011B6
:100840009A4202DA00200146704740F233439A424E
:10085000A2F2334202DC5242FFF7C5BEFFF7B4BE3C
:10086000064C074D06E0E06840F0010394E80700FD
:1008700098471034AC42F6D3FFF7B2FC8C780008EE
:10088000AC7800089FED221A9FED222A20EE010A83
:10089000B5EE001A30EE010ABDEEC01A11EE100AD4
:1008A000B5EE400AF1EE10FAB8BF013801EE100AB9
:1008B000B8EEC11A30EE410A20EE020ABDEEC01AAF
:1008C0009FED152A11EE100A002130EE021AB1EB4D
:1008D000502F47F288011CBF0020B0EE410AC0F63D
:1008E000000101EE100A01EB8001B8EE411A30EE72
:1008F000410A91ED001A91ED012AB7EE003A33EE6C
:10090000403A23EE011A20EE020A31EE000A704747
:1009100083F9223E00000044000000C490ED082A44
:1009200090ED060A90ED071A32EE023A30EE011A07
:1009300030EE030A31EE021AB1EE400A80ED001AE1
:1009400080ED010A80ED022A19B10021C0E90311EE
:10095000416170479FED201A9FED202A20EE010A89
:10096000BDEEC01A11EE100AB5EE400AF1EE10FA13
:10097000B8BF013801EE100AB8EEC11A30EE410AD4
:1009800020EE020ABDEEC01A9FED152A11EE100AE4
:10099000002130EE021AB1EB502F47F288011CBF44
:1009A0000020B0EE410AC0F6000101EE100A01EB92
:1009B0008001B8EE411A30EE410A91ED001A91ED36
:1009C000012AB7EE003A33EE403A23EE011A20EE48
:1009D000020A31EE000A704783F9223E000000440B
:1009E000000000C4014800F03DBE000040020020AD
:1009F00070B50446006881688268C1F3400112F056
:100A0000010F28D039BB816801F00D01012914D1F3
:100A10008168124A1140891C8160216803200860A6
:100A200001F08AFB054612E001F086FB401B02281C
:100A30000DD920688068C00709D0E06D40F0100033
:100A4000E065206E40F001002066012070BD206846
:100A50008068C007E8D1002070BD0000C0FFFF7FA4
:100A6000F8B50446002000902068816811F0010F5D
:100A70004AD18168254A114237D18168D54329403E
:100A8000491C81602068B0F1A04F02D02049884203
:100A900001D1204800E02048806800F0E0700002AA
:100AA0000DD51E481E490068B0FBF1F0401C00EB5C
:100AB0004000800000E0401E00900028FBD101F0C3
:100AC0003BFB06461BE0816811F0010F03D18168F2
:100AD0002940491C816001F02FFB801B02280ED9A0
:100AE00020680068C043C00709D0E06D40F01000E6
:100AF000E065206E40F0010020660120F8BD20680E
:100B00000168C943C907DED10020F8BD3F0000805D
:100B1000000100500003005000070050F4000020C6
:100B2000400D0300FEE70000014801F0C6B80000D8
:100B300074030020014801F0C0B80000D403002075
:100B4000014801F0BAB80000600500200D490268B4
:100B50008A4201D20C4901E00B492031D2B2142360
:100B6000083AB2FBF3F2436C02F01F0223F00303D6
:100B70001944816404498031C164012191400165B7
:100B80007047000008040240000802400179074A4B
:100B900002EB81024265054A4432491E826501F03A
:100BA0001F0201219140C16570470000FC0802400E
:100BB00030B5D0E913456560446D14B1D0E91645F0
:100BC000656090F8444004F01F050124AC40056CBA
:100BD0006C60046863608368102B036803D09960BD
:100BE0000068C26030BD9A600068C16030BD704767
:100BF00072B6FEE7F8B500260446009690F8580055
:100C00000D4601280BD0012084F858002046FFF73C
:100C1000EFFE0100E06D04D040F010002AE0022059
:100C2000F8BD20F4885040F00200E065206882683A
:100C3000134B1A4005F080431A4342F00042826091
:100C4000104A20680EE0009B5B1C0093934209D37E
:100C5000E06D20F0020040F01000E06584F858607C
:100C60000120F8BD8368DB0FEDD1E06D20F00200BC
:100C700040F00100E06584F858600846F8BD0000C7
:100C8000C0FFFF3F02DE0400704700002DE9F84F6F
:100C90004FF000090446CDF800900D4694F8582016
:100CA000DFF8EC8361694F464846012A0AD00126E5
:100CB000F84A84F8586041B1296A012905D0A36E29
:100CC000EBB129E00220BDE8F88F6868092838D127
:100CD000A96A4FF4785041B12B6801F07C0100EA19
:100CE00053400843E96A084302E0296800EA51409A
:100CF0002368D96C11400143D964606621E0C4E9DE
:100D00001971A96A286A31B101F07C01401E0843BB
:100D1000E96A084300E0401E29682B79C1F3846129
:100D200003F01F0399400143A06E401EA066636E4E
:100D300043EA0103636604D12168C86C104018437C
:100D4000C864206803F073FD58B995F8250098B180
:100D50002068C16895F8262021F4401141EA4251EB
:100D6000C160206803F06BFD8246206803F05FFDE0
:100D70005AEA00000DD0FCE095F8260095F8241002
:100D8000400540EA01512068C26822F44012114334
:100D9000E6E7A86A30B1E86A20B195F82500012895
:100DA0005ED003E095F82500012804D02068C168D2
:100DB00021F0007103E02068C16841F00071C1605A
:100DC00095F83000012852D02068016921F0020115
:100DD0000161AA6829682068B2F1004F38D003F099
:100DE0003AFD2068416921F000414161206869694C
:100DF000C268C2F3C102520091402A69042A45D058
:100E000000EB82002B68026EDFF88CC203F0F8431F
:100E100002EA0C020B431A4342F0004101662068CB
:100E20002A69A96900EB8200026E22F080720A43EF
:100E30000266297F22682869012924D05FF0000119
:100E400002EB8000026E22F000720A43026690E01C
:100E5000002203F000FD2068416941F00041C4E731
:100E6000E06D40F02000E0654FF00109A8E7D5E90A
:100E70000D01084321680A6922F4FF7242F0020260
:100E800010430861A5E74FF00071D9E7002103F096
:100E9000C4FC400320684FF0000172D003F0BDFC99
:100EA00090FAA0F0B0FA80F1286842036ED090FA70
:100EB000A0F0B0FA80F0814204D1002211462068EF
:100EC00003F0D8FC0121206803F0A7FC4003206850
:100ED0004FF001015DD003F0A0FC90FAA0F0B0FA51
:100EE00080F12868420359D090FAA0F0B0FA80F05F
:100EF000814204D100220121206803F0BBFC0221C1
:100F0000206803F08AFC400320684FF0020148D0BB
:100F100003F083FC90FAA0F0B0FA80F12868420355
:100F200044D090FAA0F0B0FA80F0814204D10022BF
:100F30000221206803F09EFC0321206803F06DFC71
:100F4000400320684FF0030133D003F066FC90FAB1
:100F5000A0F0B0FA80F1286842032FD090FAA0F0F8
:100F6000B0FA80F0814204D100220321206803F00E
:100F700081FC2068816811F0010F22D0B5E000E00B
:100F800004E003F04AFCC0F384618DE7C0F38460A1
:100F900091E703F042FCC0F38461A2E7C0F38460F0
:100FA000A6E703F03AFCC0F38461B7E7C0F38460BE
:100FB000BBE703F032FCC0F38461CCE7C0F384608C
:100FC000D0E72A7B296850F8B03FC1F3120C23EA1E
:100FD0000C0302F0180C314A22FA0CF20A401343B7
:100FE0000360E96841457DD1286841031AD090FA31
:100FF000A0F1B1FA81F1491C01F01F0109294FEA62
:10100000403130D8002910D090FAA0F1B1FA81F126
:1010100001F1010101F01F0106FA01F608D1C0F348
:10102000846109E0C0F38461E5E7C0F38461EFE720
:1010300090FAA0F1B1FA81F101F1010101F01F0173
:1010400046EA816102D1C0F3846003E090FAA0F027
:10105000B0FA80F000F1010000F01F0000EB40004A
:1010600041EA00513BE000290ED090FAA0F1B1FA1C
:1010700081F100BF01F1010101F01F0106FA01F643
:101080000ED1C0F384610FE0C0F38461F2E7000089
:1010900000007F400040100400F0FF03FFFF070046
:1010A00090FAA0F1B1FA81F101F1010101F01F0103
:1010B00046EA816102D1C0F3846003E090FAA0F0B7
:1010C000B0FA80F000F1010000F01F003A4A00EB96
:1010D000400002EB005041EA000141F00071AA68B3
:1010E000206800E001E003F0B6FB34482B680342BF
:1010F0005ED022684FF0A04C3148324E324D6245EE
:1011000001D0AA4201D1014600E031468968DFF8EA
:10111000BC8001F0E071434503D0DFF8B480434563
:1011200020D15FEA01281DD4624505D0294B9A429F
:101130003ED1AA4200D0304641F40001826822F03C
:10114000E0720A438260244824490068B0FBF1F051
:10115000801C00EB4000800000E0401E0090002852
:10116000FBD125E0DFF8788043450FD15FEAC11855
:101170000CD4AA4202D11B4B9A4219D0624502D02C
:10118000AA4200D0304641F080710CE0DFF8588070
:1011900043450DD14B020BD4AA4209D0624500D081
:1011A000304641F48001826822F0E0720A43826096
:1011B00084F85870484686E5000020FE000008804C
:1011C000000300500007005000010050000021C340
:1011D0001000C09000060050F4000020400D0300F5
:1011E000000052C700050050000084CB70B50546D2
:1011F0002DED068B0068B0F1A04F7DD1D0F88000B6
:1012000000EE100AF8EE400ADFED5A8A80EEA80AD6
:1012100010EE100AFFF77BF99FED579B53EC192B4B
:10122000FFF7ECF89FED56AB53EC1A2BFFF7ECF8F9
:10123000FFF798F9544C08EE100A84ED0F8A2868DD
:10124000D0F8840000EE100AF8EE400A80EEA80AFA
:1012500010EE100AFFF75BF953EC192BFFF7CEF8ED
:1012600053EC1A2BFFF7D0F8FFF77CF900EE100AC9
:1012700084ED100A9FED451AF3EE041A88EE012A58
:10128000C2EE210A80EE012AC4ED0C0A82EE218A08
:1012900084ED0B8A9FED3E0A68EE008A9FED3D0AC1
:1012A00040EE808A94ED130AFFF754FBB0EE409AAB
:1012B00094ED130AFFF7E6FAF0EE400A04F1340069
:1012C00028EE200A68EEA00A08EE890A48EE490ACC
:1012D0009FED318A80ED000A001DC0ED000AF0EE9E
:1012E000480A03F0CFFA84ED0D0AF0EE480A94EDB7
:1012F0000E0A03F0C7FA00E038E084ED0E0A207809
:10130000012803D194ED030A05F048FC2078022857
:1013100003D194ED020A05F0F3FB20789FED1F8ABC
:10132000DFED1F8A032807D194ED0A0A60EE080A50
:1013300080EEA80A05F096FB2078042805D1D4EDAC
:10134000050A94ED040A05F0F7FB207805280DD175
:1013500094ED060A60EE080A80EEA80AD4ED070AAA
:10136000BDEC068BBDE8704005F098BBBDEC068B6C
:1013700070BD000000F07F45000000000000E03F6D
:101380000000006066660A40000000206F12833A89
:101390003ACD133F3ACD933FCDCCCC3DDB0F494006
:1013A00000003443704700002DE9F0410446006816
:1013B0004FF0A0454C4FA84201D0B84201D14B4953
:1013C00000E04B49896801F01F0603F030FA08BBC2
:1013D0002068C168C06C01F0004100F4C07008438F
:1013E00012D094F85800012814D0012084F8580035
:1013F0002046FFF735FB01004FF000020CD084F8C7
:1014000058200846BDE8F081E06D40F02000E0651E
:101410000120F7E70220F5E7E06DC00504D5206E56
:1014200020F00800206600E02266E06D42F2010331
:10143000984340F48050E06520682E4BDFF8B8C038
:10144000B84201D1AE4604E0984201D1E64600E040
:101450008646864500D02EB9D4F85CE02EF4801E76
:10146000C4F85CE04FF0600EC0F800E084F858204B
:101470002068C268920203D5426842F480624260EA
:10148000A06908282068426807D022F04002426024
:101490002068426842F0200206E022F0200242600A
:1014A0002068426842F0400242602068B84204D09E
:1014B000984201D1654600E00546854209D046B113
:1014C000062E06D0072E04D0E06D40F48010E065B3
:1014D00097E7C26812F0007F93D18268074B1A40E9
:1014E00042F0080282608CE70001005000030050C7
:1014F000000700500005005000040050C0FFFF7FAF
:10150000704770472DE9F04F044690F858009BB0A3
:101510000F464FF0000B012812D0012084F858002C
:1015200000261796189620684FF0A048DFF818910B
:10153000DFF818A1464D404506D12846009508E041
:1015400002201BB0BDE8F08F484515D15046CDF8BC
:1015500000A003F074F90090206803F070F900997E
:10156000084311D0E06D40F02000E0654FF0010B22
:1015700084F858605846E4E7E06D40F02000E065EC
:1015800084F858600120DCE720684146884201D099
:10159000A84201D12F4800E02F48D7F800C02F4BB8
:1015A00040F61F72BCF1000F2DD0D0F808C094F89F
:1015B00038802CF4604C4CEA483CD7F804804CEA64
:1015C000080CC0F808C0D4F800C08C4501D0AC4568
:1015D00004D18968AB6801F0010109E0D9F808106D
:1015E000DAF8085001F0010105F001059B68294374
:1015F00003F001031943BBD1BB6839681943836801
:10160000934319431DE0876827F460478760276884
:101610008F4201D0AF4204D18968AB6801F001016B
:1016200009E0D9F80810DAF8085001F0010105F0D6
:1016300001059B68294303F00103194398D1816890
:101640009143816094E700000004005000050050C1
:101650000001005000030050000700500006005039
:10166000704770472DE9F84F0446006806684568E2
:101670004FF0A048DFF89092404501D0484501D195
:10168000A24800E0A248806800F01F07B0070ED50E
:10169000A8070CD5E06DC00603D4E06D40F40060EF
:1016A000E0652046FFF7F0FA216802200860DFF8C5
:1016B00064B2DFF864A2700701D5680703D430076D
:1016C0003FD528073DD5E06DC00603D4E06D40F45A
:1016D0000070E065206803F0B6F860B32068484504
:1016E00001D1424604E0584501D1524600E002468D
:1016F000824208D03FB1052F05D0092F03D04845BD
:1017000003D1414606E0C16805E0584501D1514684
:1017100000E00146C96889040DD4016809070AD5AB
:1017200003F089F858B3E06D40F01000E065206EDA
:1017300040F0010020662046FFF792FF21680C2050
:101740000860B00601D5A80603D470065FD5680608
:101750005DD5E06DC00603D4E06D40F40050E06557
:101760002068C16C11F4C07F1AD00021009103F0F1
:101770006AF802462068484514D1434617E02068BD
:10178000416821F00C014160E06D20F48070E0655B
:10179000E06DC004CFD4E06D40F00100E065CAE721
:1017A0000121E3E7584501D1534600E00346834257
:1017B00008D03FB1062F05D0072F03D0484503D1ED
:1017C000414606E0C16805E0584501D1514600E0B8
:1017D0000146C968009BA3B18B0102D58AB18A0476
:1017E0000FD4026852060CD589020AD403F01BF804
:1017F000F0B3E06D40F01000E065206E40F00100B5
:1018000020662046FFF7F2FC216860200860300661
:101810000BD5280609D5E06D40F48030E065204600
:1018200000F096F9216880200860F0050CD5E805E5
:101830000AD5E06D40F40030E0652046FFF760FE19
:1018400021684FF480700860B0050CD5A8050AD552
:10185000E06D40F48020E0652046FFF752FE2168ED
:101860004FF400700860F00631D5E8062FD500E08F
:1018700009E0E06BE8B12068EFB3404501D048458E
:1018800012D1224811E02068416821F060014160D6
:10189000E06D20F48050E065E06DC005B1D4E06DEE
:1018A00040F00100E065ACE71948806800F4604052
:1018B00050B1E06D40F48060E065206E40F00200C1
:1018C00020662046FFF7CDFE2168102008607005D5
:1018D00017D5680515D5E06D40F48040E065206EB1
:1018E00040F00800206621684FF4806008602046C0
:1018F000BDE8F84F00E001E0FFF754BDC068C00745
:10190000D6E7BDE8F88F000000010050000300504A
:10191000000700500005005000040050F8B54FF0DB
:10192000000604003546009602D0E06D10B107E0D5
:101930000120F8BD204600F00DF9256684F85850C6
:1019400020688168C1F3407119B18168744A1140FF
:10195000816020688168C1F3007189B98168714A2A
:10196000114041F0805181606F4870490068B0FBC0
:10197000F1F04000801C00E0401E00900028FBD1E8
:1019800020688168C1F3007141B9E16D41F0100137
:10199000E165216E41F001012166012602F04BFF55
:1019A0000546E06D00F01001E06D294305D040F0E0
:1019B0001000E06501263046F8BD20F4807040F04C
:1019C0000200E0652068816811F0010F27D14FF017
:1019D000A043574A984201D0904204D19968976831
:1019E00001F001010AE053498968534F01F00101F8
:1019F000BF6807F001073943504FBF6807F0010780
:101A000039430CD1984201D0904201D14C4800E0BA
:101A10004C486168826822F47C120A438260E16863
:101A2000E06B627F0843A16841EA4231084394F8C1
:101A3000241040EA0140012904D1218D424A02EBE1
:101A400041410843E16A29B101F47871226B0143F5
:101A500042EA01002168CA683C4B1A400243CA604E
:101A600020680169626B21F04061114301612068C7
:101A700002F0D9FE05432ED1207F94F83810800360
:101A800040EA41012068C26844F202039A430A43D3
:101A9000C26020690028206801690AD041F48031C1
:101AA0000161206850F8C01F22696FF30D011143D6
:101AB00007E021F480310161206850F8C01F6FF306
:101AC0000D01016094F8400001280CD020680169E4
:101AD00021F001010161606901282068016B21F09A
:101AE0000F0111D013E0D4E911010843D4E9131216
:101AF0001143084321680A6940F2FC739A4310437A
:101B000040F001000861E6E7226A521E11430163BA
:101B1000E06D20F0020040F00100E0654BE70000BE
:101B2000C0FFFF5FC0FFFF7FF4000020400D0300F7
:101B30000001005000040050000500500006005055
:101B400000030050000700500000FEFF0740F0FFB8
:101B50007047000010B59CB00446142115A8FEF78C
:101B6000A1FB54216846FEF79DFB2068B0F1A04F11
:101B70002DD14FF40040009080031190684600F092
:101B8000D9FB08B1FFF734F81248C16C41F4005199
:101B9000C164C16C01F400511A91C16C41F00101A2
:101BA000C164C06C15A900F001001A9003201590C3
:101BB0001690002017904FF0904000F093F900220B
:101BC0000121122000F01EFB122000F00DFB1CB0C2
:101BD00010BD00000010024010B590F82530002123
:101BE0000122022B03D00421C163012122E00368FA
:101BF0001C6824F00E041C60836C1C6824F4807440
:101C00001C6003681C6824F001041C6090F84430D8
:101C1000046C03F01F0302FA03F36360D0E913348A
:101C20005C60436D33B11C6824F480741C60D0E99F
:101C300016345C6080F82520002280F824200846B5
:101C400010BD70B590F82520002401212346022AFA
:101C500007D00422C26380F8251080F824300124C4
:101C600029E00268156825F00E0515600268156800
:101C700025F001051560826C156825F480751560E6
:101C800090F84420056C02F01F0201FA02F26A602B
:101C9000D0E913255560426D32B1156825F4807581
:101CA0001560D0E91625556080F8251080F824309D
:101CB000816B01B18847204670BDF0B4016C0C689F
:101CC00001680D6890F8442002F01F06042202FA11
:101CD00006F3234211D06B070FD50B689B0603D484
:101CE0000B6823F004030B6090F8441001F01F010F
:101CF0008A40016C4A60016B1DE0022303FA06F77B
:101D000027424FF0000C4FF0010218D0AF0716D554
:101D10000C68A40605D40C6824F00A040C6080F852
:101D2000252090F8441001F01F018B40016C4B609E
:101D300080F824C0C16A00291AD0F0BC08470823E3
:101D4000B340234214D02B0712D50B6823F00E03A7
:101D50000B6090F84410036C01F01F0102FA01F1CE
:101D60005960C26380F8252080F824C0416BE2E707
:101D7000F0BC704770B504000CD02B4A21681420C9
:101D8000914209D2294A0A44B2FBF0F08000606413
:101D900027480AE0012070BD234A52420A44B2FBA0
:101DA000F0F080006064204808382064022084F845
:101DB00025000A6847F6F0708243D4E9020318430D
:101DC000D4E904352B431843A3691843E369184346
:101DD000236A1843104308602046FEF7B7FEA06848
:101DE0000025B0F5804F00D16560A16C20790860B6
:101DF000D4E9130141606068401E032808D82046DA
:101E0000FEF7C4FE606D0560D4E91601416002E092
:101E10006565A565E565E563012084F8250084F81E
:101E20002450002070BD000008040240F8FFFDBFF0
:101E30000000024070B5044690F8240000250128F7
:101E40000CD0012084F8240094F825600020012E95
:101E500006D084F824000225284670BD022070BDFB
:101E6000022684F82560E0632068066826F00106F3
:101E700006602046FEF79CFE206B00282068016863
:101E800002D041F00E0106E021F00401016020685B
:101E9000016841F00A010160A06C0168C90303D523
:101EA000016841F480710160606D18B1016841F40E
:101EB000807101602068016841F001010160CBE799
:101EC00070B5044600F038F90546601C02D004489D
:101ED0004068044400F030F9401BA042FAD370BDC2
:101EE000E80000202DE9F04FDFF8209200230126C2
:101EF0000324A9F1040B85B00F2709F1040AABF103
:101F0000040EFAE006FA03F52A407CD091F804C0EA
:101F10000CF0030CBCF1010F02D0BCF1020F26D172
:101F2000D0F808C0CDF800C04FEA430C04FA0CF812
:101F3000CDF810C0DDF800C02CEA080CCDF800C0C8
:101F4000D1F80C80DDF810C008FA0CF8DDF800C0FC
:101F500048EA0C08C0F80880D0F804C02CEA050C48
:101F60000D79C5F300159D4045EA0C0545600D79D6
:101F7000ED43AD070ED0C5684FEA430804FA08FCEC
:101F800025EA0C05D1F808C00CFA08FC4CEA050C4F
:101F9000C0F80CC00D7905F00305022D16D1DD083F
:101FA00000EB850CCDF808C0DCF820805D074FEA17
:101FB000D56C07FA0CF528EA05080D6905FA0CF549
:101FC000DDF808C045EA0805CCF8205005684FEA5E
:101FD000430CCDF808C004FA0CFC25EA0C0591F876
:101FE00004C00CF00308DDF808C008FA0CF848EA51
:101FF0000508C0F800804D6815F4403F7CD0444D82
:10200000D5F860C000E077E04CF0010CC5F860C086
:102010002D6E23F0030C05F0010500953D4D654440
:102020000295AD684FEA837C4FEA1C7807FA08FCFA
:1020300025EA0C05B0F1904F06D0DFF8DCC0604512
:1020400005D14FF0010C20E04FF0000C1DE0DFF84F
:10205000CCC0604502D14FF0020C16E0DFF8C0C0E2
:10206000604502D14FF0030C0FE0DFF8B8C06045C7
:1020700002D14FF0040C08E0DFF8ACC0604502D19B
:102080004FF0050C01E04FF0060C0CFA08FC4CEA8E
:10209000050C029DC5F808C0D9F80050CC46D1F80F
:1020A000048095435FEAC82800D51543CCF800505A
:1020B000DAF80050D446D1F8048095435FEA8828C6
:1020C00000D51543CCF80050DBF80050DC46D1F8C1
:1020D000048095435FEA883800D51543CCF800505A
:1020E000DEF80050F446D1F8048095435FEAC83822
:1020F00000D51543CCF800505B1C0A6832FA03F592
:102100007FF400AF05B0BDE8F08F00000804014087
:102110000010024000000140000400480008004890
:10212000000C004800100048001400480AB181610A
:102130007047816270470000014880687047000066
:10214000E8000020024881684268114481607047BD
:10215000E800002010B50024032000F073F80F20E1
:1021600000F008F808B1012401E000F025F820464D
:1021700010BD000070B50E4E05460024706898B181
:102180004FF47A71B1FBF0F00A490968B1FBF0F045
:1021900001F0C9F940B9102D06D200222946501E7F
:1021A00000F030F8356000E00124204670BD0000EA
:1021B000E8000020F40000200A4882B0016E41F0DF
:1021C00001010166016E01F001010091816D41F094
:1021D00080518165806D00F08050009002B000F069
:1021E000A1B8000000100240002809DB00F01F0227
:1021F000012191404009800000F1E020C0F8001169
:1022000070470000F0B40E4B1B680C46C3F302236A
:10221000C3F10705042D00D90425191D072901D292
:10222000002300E0DB1E012606FA05F1491E2140CD
:1022300099409E40761E16403143F0BC03F084BFA7
:102240000CED00E0064900F0070208684FF6FF03B6
:10225000184040EA0220034A10430860704700001B
:102260000CED00E00000FA052B492C4B0A683221E6
:102270004A432B4940B1B0F5007F086829D020F4CB
:10228000C06040F480602CE00868C0F34120022860
:1022900004D051F8800F20F4807022E0D1F8800043
:1022A00020F48070C1F88000086820F4C06040F419
:1022B00000700860B2FBF3F0401C00E0401E4A6969
:1022C000520501D50028F9D1486940050AD50320F7
:1022D0007047C0F34120022806D051F8800F40F427
:1022E0008070086000207047D1F8800040F4807052
:1022F000C1F88000086820F4C06040F400700860F5
:10230000B2FBF3F0401C00E0401E4A695205DBD5E9
:102310000028F9D1D8E70000F400002040420F0067
:10232000007000400248816841F48041816070473C
:10233000007000402DE9F843044600680026BB4DBC
:1023400000035ED5A86D0027C00008D4A86D40F03A
:102350008050A865A86D012700F080500090DFF83C
:10236000D092D9F8001041F48071C9F80010FFF73D
:10237000E3FE804606E000BFFFF7DEFEA0EB0800AC
:1023800002282BD8D9F80000C005F5D5D5F8900063
:1023900010F4407014D0216D814211D0D5F8900016
:1023A000D5F8901020F4407041F48031C5F89010B9
:1023B000D5F8901021F48031C5F89010C5F8900040
:1023C000C00711D0FFF7B8FE804641F2883907E018
:1023D000FFF7B2FEA0EB0801494501D903260BE047
:1023E000D5F890008007F3D5D5F89000216D20F442
:1023F00040700843C5F890001FB1A86D20F08050D0
:10240000A8652078C00707D0D5F88800616820F05B
:1024100003000843C5F888002078800707D5D5F861
:102420008800A16820F00C000843C5F888002078D7
:10243000400707D5D5F88800E16820F03000084350
:10244000C5F888002078000707D5D5F888002169ED
:1024500020F0C0000843C5F888002078C00607D5E2
:10246000D5F88800616920F440700843C5F88800F9
:102470002078800607D5D5F88800A16920F440604F
:102480000843C5F888002078400607D5D5F88800AD
:10249000E16920F440500843C5F888002078000620
:1024A00007D5D5F88800216A20F440400843C5F8D4
:1024B00088002088C00507D5D5F88800616A20F417
:1024C00040300843C5F888002068800307D5D5F858
:1024D0009C00A16A20F003000843C5F89C002088F6
:1024E000800507D5D5F88800E16A20F4402008432C
:1024F000C5F88800208840050FD5D5F88800216BE5
:1025000020F440100843C5F88800206BB0F5801F08
:1025100003D1E86840F48010E860208800050FD5FA
:10252000D5F88800616B20F440000843C5F88800A6
:10253000606BB0F5800F03D1E86840F48010E8606C
:102540002088C0040FD5D5F88800A16B20F040701A
:102550000843C5F88800A06BB0F1807F03D1E8681C
:1025600040F48010E86020884FF0006180040ED5B0
:10257000D5F88800E26B20F040601043C5F8880071
:10258000E06B884203D1E86840F48010E86020885E
:1025900040040ED5D5F88800226C20F0406010432E
:1025A000C5F88800206C884203D1E86840F48010A8
:1025B000E860208800040FD5D5F88800616C20F011
:1025C00040500843C5F88800606CB0F1805F03D1CB
:1025D000E86840F48030E8602068C0030FD5D5F883
:1025E0008800A16C20F040400843C5F88800A06C2A
:1025F000B0F1804F03D1E86840F48030E860206893
:1026000040030FD5D5F89C00E16C20F4401008433E
:10261000C5F89C00E06CB0F5001F03D1E86840F4F9
:102620008010E8603046BDE8F883000000100240EA
:10263000007000402DE9F0470E4605004FF00007FE
:1026400025D0DFF8AC81D8F8000000F00F00B042D0
:102650000CD2D8F8001021F00F013143C8F8001057
:10266000D8F8000000F00F00B04210D12968614C8A
:10267000C80741F2883A5AD06868DFF87C9103288D
:1026800008D0022820682DD0400500282CDB01202E
:10269000BDE8F08720688001F9D5E06800F003020A
:1026A000E068C0F30310401C032A19D0534A00BF4E
:1026B000B2FBF0F0E268C2F306225043E268C2F3D4
:1026C0004162521C5200B0FBF2F0484517D9A06895
:1026D00010F0F00F0CD0880711D5A86840B10EE0BB
:1026E000474AE5E78003D0E700F0B6F8484506D949
:1026F000A06820F0F00040F08000A0608027A06873
:10270000696820F003000843A060FFF715FD8146CB
:1027100006E000BFFFF710FDA0EB090151453AD8D4
:10272000A068696800F00C00B0EB810FF2D1286856
:10273000810714D5400703D5A06840F4E060A0608D
:102740002878000705D5A06820F4605040F4E060C8
:10275000A060A068A96820F0F000084304E0802F82
:1027600003D1A06820F0F000A060D8F80010404627
:1027700001F00F01B14216D9016821F00F01314378
:102780000160FFF7D9FC074607E000BFFFF7D4FC64
:10279000C11B514501D903207AE7D8F8000000F0A9
:1027A0000F00B042F2D12878400705D5A068E9684B
:1027B00020F4E0600843A0602878000706D5A068F0
:1027C000296920F4605040EAC100A06000F044F89C
:1027D000A1680C4AC1F30311515C01F01F01C8400C
:1027E0000949086009480068BDE8F047FFF7C2BC26
:1027F000002002400010024000B4C4040024F40091
:1028000000127A0070700008F4000020E800002038
:102810000548064900688968054AC1F30221515CF0
:1028200001F01F01C8407047F40000200010024072
:10283000807000080548064900688968054AC1F3A8
:10284000C221515C01F01F01C8407047F400002014
:102850000010024080700008184910B58868C0F365
:1028600081021748012A0BD08A684310C2F3810203
:10287000022A06D08A68C2F38102032A03D000200C
:1028800010BD184610BDCA6802F00304CA68C2F33E
:102890000312521C032C02D0B0FBF2F001E0B3FB98
:1028A000F2F0CA68C968C2F306225043C1F341611D
:1028B000491C4900B0FBF1F010BD000000100240BF
:1028C0000024F4002DE9F84304007AD02078F84D74
:1028D000C00747D0A868E96800F00C0001F00301C8
:1028E0000C2802D0082817D001E0032914D0606812
:1028F000B0F5803F17D0B0F5A02F286817D020F48E
:1029000080302860286820F4802028606068E0B16A
:10291000FFF712FC064614E02868800322D56068A1
:102920000028D2D01EE0286840F48030EDE740F463
:1029300080202860F7E700BFFFF7FEFB801B6428BC
:1029400070D828688003F7D50CE0FFF7F5FB064642
:1029500005E000BFFFF7F0FB801B6428F0D8286873
:102960008003F7D4207880074CD5A868E96800F088
:102970000C0001F003010C2802D004280DD001E066
:1029800002290AD0E068002828682BD040F4807023
:102990002860FFF7D1FB064619E02868400502D5FC
:1029A000E068002891D06868217C20F0FE4040EA71
:1029B00001606860BF480068FFF7DCFB002800D1B9
:1029C00020E072E1FFF7B8FB801B0228B8D8286826
:1029D0004005F7D56868217C20F0FE4040EA0160A0
:1029E00068600FE020F480702860FFF7A5FB0646C2
:1029F00005E000BFFFF7A0FB801B0228A0D82868D5
:102A00004005F7D42078000729D560690028D5F85B
:102A1000940013D040F00100C5F89400FFF78CFB40
:102A2000064606E090E000BFFFF786FB801B022809
:102A300086D8D5F894008007F6D510E020F0010084
:102A4000C5F89400FFF778FB064604E0FFF774FB37
:102A5000801B022878D8D5F894008007F6D4207817
:102A6000400761D5A86D0026C00008D4A86D40F0CD
:102A70008050A865A86D012600F0805000908E4817
:102A80000168C90511D40168804641F48071016074
:102A9000FFF752FB074604E0FFF74EFBC01B02287E
:102AA00052D8D8F80000C005F6D5A068012815D086
:102AB0000528D5F8900016D020F00100C5F8900048
:102AC000D5F8900020F00400C5F89000A06841F20D
:102AD0008838B8B1FFF730FB07460EE0D5F8900014
:102AE00040F00100F0E740F00400C5F89000F5E781
:102AF000FFF722FBC11B414526D8D5F8900080077F
:102B0000F6D50CE0FFF718FB074604E0FFF714FBCF
:102B1000C11B414518D8D5F890008007F6D41EB1E6
:102B2000A86D20F08050A8652078800629D5A0697E
:102B30000028D5F8980013D040F00100C5F898009F
:102B4000FFF7FAFA064606E075E000BFFFF7F4FA71
:102B5000801B02286FD8D5F898008007F6D510E0C2
:102B600020F00100C5F89800FFF7E6FA064604E0F9
:102B7000FFF7E2FA801B02285DD8D5F8980080079D
:102B8000F6D4E069F0B3A968C1F3810103295DD0EF
:102B90000228286820F08070286003D0FFF7CCFA64
:102BA00004464BE0FFF7C8FA064604E0FFF7C4FA14
:102BB000801B02283FD828688001F7D4F4E9080177
:102BC0006FF00F0202EB01110843218A52044908F9
:102BD00002EB4151A26841EA02210843217D4FF0F6
:102BE0007E42490802EB41610843217B40EAC16013
:102BF000E968324A11400843E860286840F0807074
:102C0000286000E05EE0E86840F08070E860FFF770
:102C100093FA044605E000BFFFF78EFA001B022876
:102C200009D828688001F7D54CE000BFFFF784FA87
:102C3000001B022802D90320BDE8F8832868800120
:102C4000F4D4E8681E490840E8603BE00128F3D06E
:102C5000E868226A00F00301914226D1616A00F01F
:102C6000F0020901103991421FD1A26A00F4FE411D
:102C7000B1EB022F19D194F82C2000F07841B1EB80
:102C8000C26F12D1218E00F4C00249084905A1F596
:102C90000011914209D194F8341000F0C060490845
:102CA0004906A1F1007181420CD00120C4E7000067
:102CB00000100240E8000020007000400C809F01DE
:102CC000FCFFEEFE0020B7E77047000038B5016852
:102CD00004464A688868C043430606D5C30704D142
:102CE000D3435B0601D4E16C05E0830708D4D343EA
:102CF0001B0605D4216D01B02046BDE830400847D1
:102D0000830603D5430601D5C30551D4D3439B069F
:102D10004ED443060AD494F85D30032B49D0236E79
:102D200043F004032366CB688B680093830609D4C1
:102D3000236E43F0010323668B6800930B6823F036
:102D400040030B60C00506D4206E40F008002066EA
:102D5000206880680090206E002829D02068416893
:102D600021F0E0014160012084F85D00900701D46A
:102D7000D00722D02068416821F003014160114D45
:102D8000A06D40B18563A06DFEF75BFF18B1206EAA
:102D900040F040002066606D002809D08563606DBA
:102DA000FEF74FFF002803D0206E40F04000206661
:102DB00038BDC8688868009038BD2046FFF784FF9A
:102DC00038BD0000214D000870B5040009D0606ACC
:102DD000002540B125616561A56294F85D0040B1B0
:102DE0000CE0012070BD6068B0F5827FF4D0E56131
:102DF000F2E784F85C50204600F05CF8022084F88A
:102E00005D002068016821F040010160E1684FF435
:102E1000E062914201D9002001E04FF48050B1F509
:102E2000706F02D0914200D0A562A188228901F47E
:102E3000827102F404421143227C02F00202114327
:102E4000227D02F001021143228B02F40072114331
:102E5000227F02F03802114394F8202002F0800211
:102E60001143228D02F40052114322681160A169BE
:102E7000042202EA114194F8242000F4805002F068
:102E80001002114394F8342002F008021143A28981
:102E900002F4706211430143206841602068C169F7
:102EA00021F40061C1612566012084F85D000020E5
:102EB00070BD00002DE9F04786B005461421684634
:102EC000FDF7F0F9494A29684948022603270024FA
:102ED00091426AD1016E41F480510166016E01F4A4
:102EE00080510591C16C41F00101C164C16C01F0D8
:102EF00001010591C16C41F00201C164C06C02AADC
:102F000000F002000590A020CDE900064FF0050872
:102F100082E8900169464FF09040FEF7E3FF02AA75
:102F20004FF0100A82E89001CDE900A669463148C9
:102F3000FEF7D8FF314E30484FF4807730600A20DA
:102F4000C6E901044FF080097761C6E903494FF4EF
:102F50008068C6E9068430463462FEF70BFF08B18C
:102F6000FDF746FEAE65B562244E23486036143048
:102F700030607761C6E90349C6E906840B203462F4
:102F8000C6E9010A3046FEF7F5FE08B1FDF730FE4E
:102F90006E65002211462320B562FFF733F9232026
:102FA000FFF722F906B0BDE8F087154A9142F9D142
:102FB000816D41F400418165816D01F4004105910D
:102FC000C16C41F00401C164C06C029400F00400C3
:102FD00005904FF4E050CDE900060620CDE90370DE
:102FE00069460848FEF77EFFDCE70000003001403C
:102FF0000010024000040048080002407403002052
:10300000003C004000080048704770472DE9FF5F12
:103010001D46934604464FF001090E9EFFF78CF8BB
:10302000074694F85D006168012806D0B1F5827FFB
:1030300039D1A168B1BB042835D1019800287CD0D2
:10304000BBF1000FFBD0002DF9D094F85C000128F3
:1030500029D04FF0010A84F85CA094F85D000428A0
:1030600002D0052084F85D004FF00008C4F86080AD
:10307000C4F840B0A4F84650A4F844500199A163A4
:10308000E587A587C4F84C80C4F85080E0684FF409
:10309000E061884201D8012D09D92068426822F4F4
:1030A000805208E0FFE7022004B0BDE8F09F2068EE
:1030B000426842F48052426020680268520603D49B
:1030C000026842F040020260E0688842606846D9C7
:1030D00008B1012D3BD1A06B01882068C160A06BB5
:1030E000801CA063E08F401EE08730E0206881688C
:1030F00089070FD5E18F69B1B9F1010F0AD1A16B31
:103100000988C160A06B801CA063E08F401EE0872F
:103110004FF0000920688168C90711D0B4F8461043
:1031200071B1C068216C0880206C801C2064B4F8E8
:103130004600401EA4F8460000E09EE04FF0010962
:10314000FEF7FAFFC01BB04201D3701C74D1E08FB0
:103150000028CBD1B4F846000028C7D175E008B1EB
:10316000012D6BD1E08F0128A06B08D92168008860
:10317000C860A06B801CA063E08F801E07E0216800
:1031800000780873A06B401CA063E08F401EE087AE
:1031900054E02068816889071AD5E18FC1B1B9F17F
:1031A000010F15D1E18F0129A16B07D90988C160F1
:1031B000A06B801CA063E08F801E06E0097801737D
:1031C000A06B401CA063E08F401EE0874FF0000919
:1031D00020688168C90728D0B4F8461029B3B4F82C
:1031E0004610012914D9C068216C0880206C801C0D
:1031F0002064B4F84600801EA4F84600B4F84600E7
:10320000012810D82068416841F4805141600AE0EB
:10321000007B216C0870206C401C2064B4F84600D0
:10322000401EA4F846004FF00109FEF785FFC01BC1
:10323000B04202D3701C01D012E08EB1E08F0028A2
:10324000A7D1B4F846000028A3D13A46314620461B
:1032500001F028FE50B12020206684F85C800CE04C
:1032600084F85DA084F85C8003201DE784F85DA0ED
:1032700084F85C80206E0028F7D0012014E700005D
:1032800070B5044690F85D006568012806D0B5F574
:10329000827F32D1A5687DBB04282ED151B34AB3B9
:1032A00043B394F85C00012827D0012084F85C0027
:1032B00094F85D50042D02D0052584F85D5000255A
:1032C0002566A163A387E3872264A4F84430A4F8A9
:1032D0004630E564256521684A6822F4C0424A60A8
:1032E000E168B1F5E06F0AD92068416821F48051A6
:1032F000416035E0012070BDFFE70220FBE7216857
:103300004A6842F480524A60616D4FF48062896974
:1033100091420CD194F83C10C90721684B6838D011
:1033200043F480434B60E18F00EB5101E187A16DD5
:103330008969914214D121684A6822F480524A6016
:10334000B4F84610C9072AD021684A6842F40052EE
:103350004A60B4F8461000EB510000BFA4F84600E4
:1033600094F85D00042823D0A16D2D4808632D48F2
:10337000A16DC862A16D2C484863A06D8563B4F847
:1033800046302168226C0C31A06DFEF753FD48BB1E
:1033900013E023F480434B60E18F4908C6E72068BF
:1033A000416821F400514160B4F846004008D5E777
:1033B000A16D1E4808631E48DAE72068416841F0A5
:1033C00001014160606D0563606DC562606D4563BC
:1033D000606D8563E38F2268A16B0C32606DFEF730
:1033E00029FD30B1206E40F01000206684F85C505A
:1033F00080E720680168490603D4016841F0400174
:10340000016084F85C502068416841F0200141600F
:103410002068416841F00201416000206BE7000034
:103420005F4D0008D54D0008334D0008554D00088C
:10343000694D000810B500683249884261D1324CAC
:10344000012204212046FEF771FE3049DFED301ADB
:103450009FED301A8888C0F30D0200EE102A8A8092
:10346000B8EE400A20EE210AC0EE010AC1ED110AB1
:103470008878012806D1BCEEE00A10EE100AC87068
:103480000020887000EE102A91ED141AB8EE400A60
:1034900030EE410AB5EEC00AF1EE10FA02DDB0EEF0
:1034A000401A01E0B1EE401A11EE100A1A4B984290
:1034B0000CDBB5EEC00AF1EE10FA01DDDFED171AF4
:1034C00091ED120A31EE800A81ED120A00EE102A07
:1034D00000222046B8EE400A81ED140A91ED120A4E
:1034E00030EE200A81ED130A0421FEF71FFE074A81
:1034F0000223BDE81040121D4FF6FF710848FFF788
:10350000BFBE10BD00300140000400480000002094
:10351000DB0FC94000FC7F469AC94C46DB0FC9C08F
:10352000AC020020704710B5401EB0F1807F01D37F
:10353000012010BD4FF0E02460610F21601702F000
:1035400003FE0020A06107202061002010BD70470D
:103550007047704730B590F83C20012A45D00122D1
:1035600080F83C20CA688B6822F440721A434B688A
:1035700022F480621A430B6822F400621A430B693A
:1035800022F480521A434B6922F400521A430B6B07
:1035900022F480421A430B8B22F4702242EA034247
:1035A000CB6922F080521A43114D03680024AB42CC
:1035B00005D0104DAB4202D00F4DAB4210D10D8D56
:1035C00022F4700242EA05520D6A22F080722A4308
:1035D0004D6A22F000722A43C96A22F000520A435F
:1035E0005A6480F83C40002030BD022030BD00000D
:1035F000002C0140003401400050014070477047EA
:1036000070470000F0B590F83C20012A43D0012516
:1036100080F83C50022280F83D2003685A689C687C
:103620001E4E1F4FDFF87CC0B34203D0BB4201D017
:10363000634504D122F4700E4A6842EA0E02DFF8B4
:1036400068E002EA0E02D1F800E04EEA020EC3F88A
:1036500004E00268B24212D0B2F1804F0FD0134B97
:103660009A420CD0124B9A4209D0124B9A4206D081
:10367000BA4204D0104B9A4201D0624504D1896805
:1036800024F080031943916080F83D50002180F8B8
:103690003C100846F0BD0220F0BD0000002C0140A7
:1036A00000340140005001408FFFFFFD0004004046
:1036B00000080040000C004000400140704710B579
:1036C000040003D094F83D0010B107E0012010BDC4
:1036D000002084F83C00204600F022F8022084F804
:1036E0003D00211D206801F0F1FE012084F8480012
:1036F00084F83E0084F83F0084F8400084F84100DC
:1037000084F8420084F8430084F8440084F84500BB
:1037100084F8460084F8470084F83D00002010BD7E
:1037200008B5114A01681148914207D1016E41F470
:1037300000610166006E00F4006009E00C4A9142ED
:1037400011D1016E41F480310166006E00F48030C9
:103750000022009011461820FEF754FDBDE80840F5
:103760001820FEF741BD08BD002C014000100240AA
:103770000040014090F83D10012901D00120704720
:10378000022180F83D1000681249884214D0B0F13F
:10379000804F11D0104988420ED0104988420BD07A
:1037A0000F49884208D00F49884205D00E49884207
:1037B00002D00E49884207D181680D4A114006297E
:1037C00006D0B1F5803F03D0016841F001010160EE
:1037D00000207047002C0140000400400008004019
:1037E000000C004000340140004001400050014006
:1037F0000700010090F83D10012901D00120704719
:10380000022180F83D100168CA6842F00102CA60D6
:1038100000681349884214D0B0F1804F11D011498B
:1038200088420ED0104988420BD01049884208D0F7
:103830000F49884205D00F49884202D00E4988427C
:1038400007D181680D4A1140062906D0B1F5803FA5
:1038500003D0016841F001010160002070470000C1
:10386000002C01400004004000080040000C004013
:1038700000340140004001400050014007000100B9
:1038800070B5044690F83C00002501281CD00126A4
:1038900084F83C60022084F83D0022689068334B35
:1038A000184020F47F4090600868B0F5005F2ED08B
:1038B00016DC402849D009DCD0B1102818D02028C7
:1038C00016D0302849D113E0022070BD50282AD0EC
:1038D000602830D070280FD0B0F5805F3DD13DE03A
:1038E00010F00F0F39D10111A1F58031072934D81B
:1038F00022680146104625E0CB68D1E90121206805
:1039000001F063FE2068816841F0770109E0CB682F
:10391000D1E90121206801F058FE2068816841F456
:10392000804181601AE0CA684968206802F022F884
:103930005021206806E0CA684968206802F02BF828
:103940006021206801F04CFE08E0CA6849682068E0
:1039500002F010F840212068F4E7012584F83D606A
:10396000002084F83C00284670BD000088FFCEFF90
:1039700070472DE9F04104460068C66805694FF0BC
:103980000007A90713D5B10711D5F91E0161012060
:103990002077206880698007204602D0FFF7E8FF83
:1039A00004E000F0E1F8204600F0A3F9277768076B
:1039B00016D5700714D521686FF004000861022045
:1039C00020772068806910F4407F204602D0FFF7FE
:1039D000CFFF04E000F0C8F8204600F08AF927770E
:1039E000280715D5300713D521686FF00800086146
:1039F000042020772068C0698007204602D0FFF7A6
:103A0000B7FF04E000F0B0F8204600F072F9277725
:103A1000E80616D5F00614D521686FF0100008618D
:103A2000082020772068C06910F4407F204602D02B
:103A3000FFF79EFF04E000F097F8204600F059F9E8
:103A40002777E80708D0F00706D021686FF001005B
:103A50000861204600F0D8F9280601D4A80408D54A
:103A6000300606D521686FF4025008612046FFF742
:103A70006FFDE80508D5300606D521686FF4807023
:103A800008612046FFF763FD680608D5700606D575
:103A900021686FF040000861204600F025FAA80672
:103AA00008D5B00606D521686FF0200008612046D1
:103AB000FFF74FFDE80208D5F00206D521686FF444
:103AC000801008612046FFF79AFDA80208D5B002D1
:103AD00006D521686FF4001008612046FFF78EFDBF
:103AE000680208D5700206D521686FF4800008616D
:103AF0002046FFF785FD28020AD5300208D5216847
:103B00006FF4000008612046BDE8F041FFF7D6BD24
:103B1000BDE8F08110B586B0044614216846FCF774
:103B2000C1FB0F492068884217D10E48C16C41F093
:103B30000101C164C06C694600F0010005904FF4BA
:103B4000E060009002200190002002900390062087
:103B500004904FF09040FEF7C5F906B010BD00008C
:103B6000002C014000100240704770B5044690F8E8
:103B70003C0000260D4601280BD0012084F83C00B3
:103B80000C2A4AD007DC82B1042A20D0082A06D1A8
:103B900031E0022070BD102A53D0142A63D00126D0
:103BA000002084F83C00304670BD206801F022FD02
:103BB0002068816941F0080181612068816921F0F4
:103BC00004018161206881692A69114311E020683C
:103BD00001F066FD2068816941F40061816120681F
:103BE000816921F480618161206881692A6941EAE3
:103BF00002218161D4E7206801F0A2FD2068C1693B
:103C000041F00801C1612068C16921F00401C1616E
:103C10002068C1692A69114311E0206801F0E0FDC4
:103C20002068C16941F40061C1612068C16921F463
:103C30008061C1612068C1692A6941EA0221C161CC
:103C4000AEE7206801F01CFE2068016D41F008011C
:103C500001652068016D21F0040101652068016D96
:103C60002A69114311E0206801F046FE2068016DC9
:103C700041F4006101652068016D21F480610165F6
:103C80002068016D2A6941EA0221016588E710B5C3
:103C9000040003D094F83D0010B107E0012010BDEE
:103CA000002084F83C00204600F022F8022084F82E
:103CB0003D00211D206801F009FC012084F8480026
:103CC00084F83E0084F83F0084F8400084F8410006
:103CD00084F8420084F8430084F8440084F84500E6
:103CE00084F8460084F8470084F83D00002010BDA9
:103CF0007047704770B50446022269B1042912D09A
:103D0000082917D00C291CD0102921D094F8430081
:103D1000012824D0012070BD94F83E000128F9D17B
:103D200084F83E201DE094F83F000128F2D184F889
:103D30003F2016E094F840000128EBD184F84020A1
:103D40000FE094F841000128E4D184F8412008E014
:103D500094F842000128DDD184F8422001E084F883
:103D600043200122206801F023FC1D4920681D4AE0
:103D70001D4B1E4D88420BD0904209D0984207D06F
:103D80001B4EB04204D01B4EB04201D0A84203D11A
:103D9000466C46F4004646642068884211D0B0F173
:103DA000804F0ED0144988420BD01449884208D065
:103DB0001349884205D0904203D0984201D0A842CE
:103DC00007D181680F4A1140062906D0B1F5803F1E
:103DD00003D0016841F001010160002070BD0000C6
:103DE000002C0140003401400040014000500140DF
:103DF0000044014000480140000400400008004029
:103E0000000C00400700010010B5006830498842EE
:103E10005DD1304C2146607891ED110A012803D123
:103E200084ED090A00206070D4ED090A30EE600AC2
:103E3000DFED290A02F0F1FD84ED180AD4ED110A34
:103E40009FED261AC4ED090A2549C0EE010A01209A
:103E5000C4ED080A01EB8002401C92ED000A032821
:103E600002ED010AF6DB1E4A0020C1ED020A0C3207
:103E700001EB800393ED000A02EB8003401C83ED0D
:103E8000000A0328F4DB0020014601E000210DE0D8
:103E900002EB810393EC020AB4EEE00AF1EE10FAB1
:103EA00003DDC3ED000A83ED010A491CC0F10203E2
:103EB0008B42EDDC401C0228E8DB92ED010ADFEDCD
:103EC000090A84ED080A00F0DDFC84ED080A10BD43
:103ED0000040014000000020DB0FC9406F12833A10
:103EE00098010020295C8F3D704790F884100129CB
:103EF00018D0012180F884102421C0F888100168AE
:103F00000A680B6823F001030B6022F000510022C5
:103F10004266036819602021C0F8881080F8842068
:103F200010467047022070477047704770B50446CE
:103F300090F8840001281DD0012084F884002420FA
:103F4000C4F8880020680568026822F00102026057
:103F50002068826822F060620A438260204601F095
:103F60002DFD206805602020C4F88800002084F81A
:103F7000840070BD022070BD70B5044690F88400C6
:103F800001281DD0012084F884002420C4F8880072
:103F900020680568026822F00102026020688268D9
:103FA00022F060420A438260204601F007FD20684B
:103FB00005602020C4F88800002084F8840070BDCB
:103FC000022070BD704770472DE9F04100688949B3
:103FD00088427DD18849894E00220B7891ED063ABE
:103FE000D1ED072A91ED042AD1ED051A91ED0A1AB7
:103FF000D1ED020A91ED030A01F16400F2EE043AF8
:104000009FED7F4ADFED7F4A7F4DB45C8454047896
:10401000742C06D0732C2CD0702C45D0742C03D06B
:10402000C6E044786F2C03D04478612C59D0BFE0AF
:104030008478722C1CD104790123303C00EE104AA4
:104040004479B8EEC00A303CC0EE235A00EE104A64
:104050008479B8EEC00A303C80EE045A00EE104A73
:10406000B8EEC00A35EE855AC0EE245A35EE250A60
:104070009EE04478702C16D18478652C13D1047995
:104080000223303C877904EBC40C0CEB041407EBDF
:104090008404477907EB870705EB47073C4400EEAC
:1040A000904AF8EEE00A83E044786F2C18D18478C7
:1040B000732C7DD104790323303C877904EBC40C45
:1040C0000CEB041407EB8404477907EB870700E047
:1040D0008DE005EB47073C4401EE104AB8EEC11AEB
:1040E00066E08478732C02D0702C31D060E00479C3
:1040F0008779303C04EBC40C0CEB041407EB84040C
:104100004779042307EB870705EB47073C4401EE9B
:10411000904A047AB8EEE12A303C01EE904A447AA3
:10412000F8EEE11A303C81EEA35A01EE904A847A0F
:10413000F8EEE11A303CC1EE845A01EE904A35EEB9
:10414000255AF8EEE15AC5EEA41A75EE211A2FE0B1
:1041500004798779303C04EBC40C0CEB041407EBB6
:1041600084044779052307EB870705EB47073C44A1
:1041700002EE904A047AB8EEE23A303C02EE904AFF
:10418000447AF8EEE22A303C82EEA35A02EE904ADC
:10419000847AF8EEE22A303CC2EE845A02EE904A6B
:1041A000F8EEE22A35EE255AC2EEA45A75EE252A1B
:1041B000521CD2B2802AFFF428AF0B7081ED063A70
:1041C000C1ED072A81ED042AC1ED051A81ED0A1A15
:1041D000C1ED020A81ED030A80210848FCF762F86C
:1041E000BDE8F04180220549084800F097BABDE8D3
:1041F000F08100000038014000000020180100207C
:104200000000C84200007A44F0FDFFFFCC0400200B
:1042100070B50446216851E8000F20F4907041E821
:104220000002002AF6D1284A2068083050E8001F12
:10423000114040E80013002BF6D1E06E012808D1B0
:10424000206850E8001F21F0100140E80012002A09
:10425000F6D1216888684FF00F0245064FF0000044
:104260004FF020032AD52168083151E8005F25F07E
:10427000400541E80056002EF5D1D4F8801059B120
:1042800012488863D4F88000FDF7DBFCA0B1D4F8B5
:104290008000816B88470FE0A4F85E00A06521686C
:1042A0000A6221688A6942F008028A61C4F88C3087
:1042B000E0662046FFF788FE002070BDA4F85E008F
:1042C000A0650A62F2E70000FEFFFFEF7B5C0008DA
:1042D000704700002DE9F04103680446D869196869
:1042E0009A6840F60F0528424FF000054FF002068D
:1042F0000AD187067ED501F0200702F0805C57EADC
:104300000C0777D0616F42E1B64FDFF8DCC217408F
:1043100001EA0C0C57EA0C0C6CD05FEAC07C0CD0A4
:104320005FEAC15C09D54FF0010CC3F820C0D4F896
:10433000903043F00103C4F89030830709D5D307C8
:1043400007D023681E62D4F8903043F00403C4F809
:10435000903043070AD5D30708D026680423336278
:10436000D4F8903043F00203C4F8903003070CD522
:1043700001F020033B4308D0266808233362D4F8B9
:10438000903043F00803C4F8903003050BD54B017F
:1043900009D526684FF400633362D4F8903043F0B7
:1043A0002003C4F89030D4F89030002B3DD0800624
:1043B00009D501F0200002F08051084303D0616F5D
:1043C00009B120468847D4F89000216889684906D9
:1043D00002D410F0280F2AD0204601F063FC206898
:1043E000806840061ED52068083050E8001F21F084
:1043F000400100E021E040E80012002AF3D1D4F8A7
:10440000800078B179498163D4F88000FDF719FC08
:1044100000280AD0D4F88000816B00E02046BDE877
:10442000F04108472046FFF753FFBDE8F0812046E2
:10443000FFF74EFFC4F89050F7E7D4F86CC0202780
:10444000BCF1010F7ED15FEAC06C7BD55FEAC16C25
:1044500078D51020186220688068400651D5D4F8BD
:1044600080100A6850680004000C3ED0B4F85C303C
:1044700083423AD9A4F85E000868006880062CD40C
:10448000216851E8000F20F4807041E80002002A02
:10449000F6D12068083050E8001F21F0010140E803
:1044A0000012002AF5D12068083050E8001F21F0E2
:1044B000400140E80012002AF5D1C4F88C70E5668E
:1044C000216851E8000F20F0100041E80002002AA6
:1044D000F6D1D4F88000FDF77FFB2667B4F85C00C6
:1044E000B4F85E10401A81B207E0B4F85C10814263
:1044F0009BD11068800698D526672046FFF714FDEB
:1045000093E7B4F85C00B4F85E10401A81B2B4F8D6
:104510005E00002889D0002987D0226852E8000F69
:1045200020F4907042E80003002BF6D12D4BDB43C2
:104530002068083050E8002F1A4040E8002CBCF1F9
:10454000000F00E00EE0F3D1C4F88C70E5666567FB
:10455000206850E8002F22F0100240E80023002BD2
:10456000F6D1C9E7C60209D5560207D54FF4801027
:1045700018622046BDE8F041FFF725BD03060AD5C5
:1045800001F0800302F40002134304D0A16F00295C
:104590007FF444AF49E7420611D54A060FD52046BD
:1045A000016851E8002F22F0400241E80023002B6F
:1045B000F6D1C0F88870856700F02DF935E7020262
:1045C00006D54A0004D52046BDE8F041FFF7FABC05
:1045D000C00195D5002993DA2046BDE8F041FFF7E8
:1045E000A4BC00000100001020010004755B00085D
:1045F00010B5040003D0D4F8880010B107E0012002
:1046000010BD002084F88400204600F027F8242004
:10461000C4F888002068016821F001010160A06AE7
:1046200010B1204601F0ECF9204601F07DFB012895
:10463000E6D02068416821F490414160206881689B
:1046400021F02A0181602068016841F001010160C8
:104650002046BDE8104001F037BA000070B59CB0AC
:104660000646142115A8FBF71DFE54216846FBF7EA
:1046700019FE25493068884244D101200025CDE942
:1046800000056846FDF756FE08B1FCF7B1FA1F4970
:10469000086E40F480400866086E00F480401A906E
:1046A000C86C40F00400C864C86C15A900F0040090
:1046B0001A90302015900220CDE916050720CDE98B
:1046C00018501348FDF70EFC134C124820601820B8
:1046D000C4E901058020C4E903506561A561E56175
:1046E00020462562FDF746FB08B1FCF781FAC6F8C3
:1046F0008040002211462520A662FDF783FD25207B
:10470000FDF772FD1CB070BD003801400010024082
:1047100000080048300002406005002030B4D0F8A6
:104720008C30202B02D0022030BC7047A9B1A2B13E
:104730000023C3660A4C0368A3420BD05B681B02CC
:1047400008D5046854E8003F43F0806344E800352E
:10475000002DF6D130BC01F033BC0120E4E70000AD
:1047600000800040704770472DE9F8430446D0F8B8
:104770008800984616460D46202802D00220BDE843
:10478000F883A5B19EB10020C4F890002120C4F8A0
:1047900088001834FDF7D0FCA6878146E68754F8D8
:1047A000100C2027183CB0F5805F02D003E00120F8
:1047B000E5E7206910B12E46002510E000260EE046
:1047C0008021204601F050FCC0B9DEB116F8010B83
:1047D00021688862B4F85600401EA4F85600B4F868
:1047E00056004B464FF00002CDF800800028E7D17C
:1047F0004FF04001204601F037FC40B1C4F888700A
:104800000320BCE735F8020BC0F30800E0E7C4F86A
:1048100088700020B3E77047FEE700EB8100006E70
:1048200000F0F84070478068C0F3C00070478068AF
:10483000C0F3C00070478068C0F380007047806894
:10484000C0F380007047C06810F4406F01D00020B2
:10485000704701207047042303EAD15310B5184470
:104860004369C1F3045107248C40A3438A40134396
:10487000436110BD00EB8100016E21F00041114346
:1048800001667047B7EE001A054820EE200A71EE67
:10489000600A90ED001A01EE200A80ED000A7047D0
:1048A000E400002070B592B000240F9410943C21D5
:1048B00068461194FBF7F6FC28484FF0A04101250B
:1048C00001604FF44031C0E9011400F110010426E9
:1048D000C46081E8700004774577056280F8244061
:1048E00080F83840C46380F84040FDF717F808B1FD
:1048F000FCF77EF90FA919480F94FCF703FE08B1E5
:10490000FCF776F9164800900920CDE901057F20D3
:104910000594CDE903060220089080208DF82440FC
:104920008DF825400A900B908DF826408DF8304088
:1049300069460A48FCF7AAF908B1FCF759F9094891
:10494000009040F20F10019069460448FCF79EF970
:10495000002801D0FCF74CF912B070BD40020020D5
:104960000200300404006008154808B5816C41F06D
:1049700004018164816C01F004010091816C41F0BB
:1049800001018164806C002200F00100009011465A
:104990000B20FDF737FC0B20FDF726FC002211460B
:1049A0000C20FDF72FFC0C20FDF71EFC0022114609
:1049B0000D20FDF727FCBDE808400D20FDF714BCD5
:1049C000001002402DE9F04186B014216846FBF743
:1049D00069FC2E48C16C41F00401C164C16C01F056
:1049E00004010591C16C41F02001C164C16C01F06A
:1049F00020010591C16C41F00101C164C16C01F05D
:104A000001010591C16C41F00201C164C06C204FED
:104A100000F002004FF44044059000222146384641
:104A2000FDF784FBDFF86C80012246F2010140466D
:104A3000FDF77CFB002204214046FDF777FB0125B2
:104A4000CDE9004500240294694638460394FDF7F9
:104A500049FA03260096CDE9016469463846FDF718
:104A600041FA0520CDE90005CDE9024669464046F8
:104A7000FDF738FA7003CDE90005CDE90254694627
:104A80004046FDF72FFA06B0BDE8F0810010024065
:104A90000008004800040048124810B510490160A1
:104AA0004FF48271416000214FF47062C0E902123C
:104AB0000122C0E90412520282613022C0E90721BA
:104AC00007224162C0E90A1201634163FEF77CF9E3
:104AD000002803D0BDE81040FCF78AB810BD0000E4
:104AE00000300140AC020020124810B510490160AE
:104AF0004FF48271416000214FF47062C0E90212EC
:104B00000122C0E90412520282613022C0E9072169
:104B100007224162C0E90A1201634163FEF754F9BA
:104B2000002803D0BDE81040FCF762B810BD0000BB
:104B3000003C00401003002010B588B00024184845
:104B400000940194029403940494059413490694E8
:104B5000016040F2A361C0E901146321C0E90314BC
:104B600044618461FEF7ABFD08B1FCF741F84FF4F6
:104B70008050009069460A48FEF782FE08B1FCF7B3
:104B800037F8049404A906480694FEF73BFD002874
:104B900001D0FCF72DF808B010BD00000040014026
:104BA0008004002030B59BB0002419941A94179407
:104BB0001894149415941C210DA81694FBF772FBFD
:104BC00034216846FBF76EFB35483449202580E8E0
:104BD000320040F64D01C0E903141321C0E9051469
:104BE000FEF76DFD08B1FCF703F84FF48050179005
:104BF00017A92B48FEF744FE08B1FBF7F9FF284838
:104C0000FFF745F808B1FBF7F3FFCDE9145414A9F9
:104C100023481694FEF7F6FC08B1FBF7E9FF602085
:104C20000D9040F22640CDE90E0410941194129498
:104C300000220DA91A481394FEF797FF08B1FBF75D
:104C4000D7FF04220DA91648FEF78FFF08B1FBF726
:104C5000CFFF08220DA91248FEF787FF08B1FBF726
:104C6000C7FF00944FF40050CDE9044003940003C3
:104C7000CDE9084001940294069407940A940B9499
:104C8000694607480C94FEF765FC08B1FBF7B0FFD6
:104C90000348FEF73FFF1BB030BD0000002C014071
:104CA00034040020184810B5164901604FF4E13172
:104CB0004160002181600C22C160C0E90412816161
:104CC000C161016241628162FFF792FC08B1FBF7AA
:104CD0008FFF00210C48FFF74FF908B1FBF788FF61
:104CE00000210948FFF722F908B1FBF781FF0648C8
:104CF000FFF7FBF8002803D0BDE81040FBF778BFB2
:104D000010BD000000380140CC040020FEE7FEE7A3
:104D1000704700000148FDF7D9BF0000AC02002039
:104D200010B5806A0021A0F84610C187FDF7CCFFBE
:104D300010BD10B5806A01684A6822F003024A601B
:104D4000016E41F010010166012180F85D10FDF750
:104D5000BBFF10BD10B5806AFEF757F910BD10B546
:104D6000806AFEF7DFFB10BD70B50546846AFDF76B
:104D7000E3F9024628680068800627D42068416865
:104D800021F020014160A06818B96068B0F5827F09
:104D900017D02068416821F001014160642120465C
:104DA00000F046F808B1202020660020A4F8460054
:104DB000012084F85D00206E40B12046FDF784FF9D
:104DC00070BD2068416821F00301E6E72046FEF748
:104DD0001BF970BD70B50546846AFDF7ADF9024652
:104DE0002868006880061FD42068416821F02001EF
:104DF00041606421204600F055F818B1206E40F063
:104E0000200020662068416821F0030141600020F5
:104E1000E087A4F84600012084F85D00206E18B1F8
:104E20002046FDF751FF70BD2046FEF703FB70BD25
:104E30002DE9F843044640684FF4827615468946CA
:104E40004FF400474FF48068B04209D1A068B842DF
:104E500001D0404504D12068016821F04001016083
:104E60004B46002280212046009500F0CDF880B905
:104E70006068B04214D1A068B84201D040450FD15B
:104E80004B4600224FF4C0612046009500F04CF8DC
:104E900030B1206E40F0200020660320BDE8F8838A
:104EA0000020FBE7F8B515460E460B460092044677
:104EB00000224FF4C05100F037F888B93346002281
:104EC00080212046009500F09FF848B93346002223
:104ED0004FF4C0612046009500F026F8002804D069
:104EE000206E40F0200020660320F8BD11B50C4C68
:104EF00083B0002201212046FDF718F94FF47A70A3
:104F00000090012301AA03A90648FEF77FF80122B9
:104F100011462046FDF70AF9BDF8040004B010BDA3
:104F200000040048100300202DE9FE4F4FF0000A56
:104F3000984617460E4604460C9D8DF804A0FDF7D2
:104F4000FBF8411BA8EB0105FDF7F6F88146206848
:104F50004FF4C06B0C3002902A480068C0EBC000D0
:104F600000EB8000000D6843009043E05E4506D1F1
:104F70002FB9029800788DF804009DF80400B8F16C
:104F8000FF3F37D0FDF7D8F8A0EB0900A84203D2C5
:104F900015B1009858B32BE02068416821F0E0017A
:104FA00041606068B0F5827F0BD1A068B0F5004F1A
:104FB00002D0B0F5806F04D12068016821F0400173
:104FC0000160A06AB0F5005F09D12068016821F492
:104FD000005101602068016841F400510160012026
:104FE00084F85D0084F85CA00320BDE8FE8F0025F6
:104FF000401E0090206880683040B842B6D1002042
:10500000F3E70000F40000202DE9F8431E46914626
:1050100088460446089DFDF78FF8401B351AFDF7BA
:105020008BF8074625480068C0F3CB30684338E06A
:10503000701C37D0FDF780F8C01BA84203D215B111
:10504000009860B32CE02068416821F0E0014160E5
:105050006068B0F5827F0BD1A068B0F5004F02D038
:10506000B0F5806F04D12068016821F04001016033
:10507000A06AB0F5005F09D12068016821F40051F1
:1050800001602068016841F400510160012084F84A
:105090005D00002084F85C000320BDE8F883002553
:1050A000401E00902068816838EA010004D0002189
:1050B0004945BDD10020F0E70121F9E7F4000020C7
:1050C00070470000F0B507462DED088B10EE900AF2
:1050D00015460E464FF07E517E4A9BB0B0EE409A88
:1050E000B7EE00AA884210DA10EE900A904201D37F
:1050F000FFEE000A11EE100AB0EE608A884207DA6D
:1051000011EE100A904205D307E0F0EE4A0AF1E7EB
:10511000B0EE4A1AF0EE419A01E0FFEE009A482202
:105120006D496846FBF7A5F86B492022483112A863
:10513000FBF79FF8B0EE490AFBF70CFCF0EE400AD3
:10514000B0EE490AF0EE608AFBF79CFBF0EE680ACD
:1051500028EE009A68EE208A09EEE09A49EE808AED
:10516000F5EEC08AF1EE10FA01DD012400E0002422
:10517000B0EEC90A10EE100AFBF7C9F99FED571BF4
:1051800053EC112BFBF740F941EC1B0BB0EEE80A96
:1051900010EE100AFBF7BBF953EC1B2BFBF7CAF917
:1051A00001D2012000E00020B5EEC09AF1EE10FA25
:1051B00001DD012100E00021A20002EB40000844D3
:1051C00012A951F8204000EE104AB8EEC00A9FED37
:1051D000458A20EE080AFBF7BDFB60EE099A00EE57
:1051E000104AB8EEC00A20EE080AFBF74BFB40EE6F
:1051F000689A00EE104AF8EEC00AB0EE480A10EEC7
:10520000880AFBF73FFB60EE288A00EE104AF8EEB2
:10521000C00AB0EE480A10EE880AFBF79BFB062294
:1052200094FBF2F002FB104000EB400049EE408A94
:105230005DF82000694600EE900A04EB440001EBA3
:105240008000F8EEE00A3AEE690A94FBF2F320EEF1
:10525000A81A50ED030A30EE680A02FB1343F8EE79
:10526000E00A03EB430301EB830309EEA01AF6EE19
:10527000000A00EE201A87ED001A93ED011A50ED96
:10528000021A94FBF2F3B8EEC11AF8EEE11A02FB2F
:10529000134221EE281A02EB420201EB820109EED1
:1052A000A11A00EE201A86ED001A91ED021A50EDB7
:1052B000011AB8EEC11AF8EEE11A21EE281A09EE29
:1052C000A11A00EE201A85ED001A1BB0BDEC088B68
:1052D000F0BD0000000080BFE06F0008AA4C58E855
:1052E0007AB6FB3F920A863F10B5234AF0EE411A88
:1052F000111FB0EE601A2DED028B081FF0EE610A4F
:10530000FFF7E0FE1C4C9FED1D8A5C3CF0EE480A66
:1053100094ED150A01F058FCF0EE480A94ED160AD7
:1053200001F052FCF0EE480A94ED170A01F04CFC33
:10533000D4ED150A9FED120A124860EE800A026849
:10534000FDEEE00A10EE901A5163D4ED160A0268E1
:1053500060EE800AFDEEE00A10EE901A9163D4ED43
:10536000170A006820EE800ABDEEC00A10EE101A7F
:10537000C163BDEC028B10BD5C0000206666663F19
:1053800000D004453404002070B5294E0122910359
:105390003046FCF7CBFE4FF47A70FCF791FD4FF4EA
:1053A0000045002229463046FCF7C0FE4FF4A150CC
:1053B000FFF79CFD41F6FF30FFF798FD42F2FF70CA
:1053C000FFF794FD42F66810FFF790FD43F2C3200B
:1053D000FFF78CFD4FF49670FCF772FD2846FFF73F
:1053E00085FD144C20604FF40840FFF77FFD60609E
:1053F000F013FFF77BFDA0604FF41840FFF776FD38
:10540000E0604FF42040FFF771FD20614FF4284029
:10541000FFF76CFD60614FF43040FFF767FDA0615E
:1054200029463046BDE870400122FCF77FBE0000EF
:1054300000080048FC000020FCF784BE10B594B0C2
:1054400038216846FAF72EFF14210EA8FAF72AFF32
:105450000020FCF709FF01200090000401900220C9
:105460000324CDE907045521CDE909010B900C90E7
:105470000D906846FDF726FA08B172B6FEE70F20D8
:10548000CDE90E04002010901190129004210EA876
:10549000FDF7D0F8002801D072B6FEE714B010BDB9
:1054A0000248016841F470010160704788ED00E036
:1054B00010B50448FEF75DFABDE810400248FEF75B
:1054C00058BA000034040020800400202DE9F04F79
:1054D00002682E4B2E4E2F4FDFF8BCC02F4C304DA4
:1054E0004FF0804B98420BD0584509D0B04207D0BE
:1054F000B84205D0604503D0A04201D0A84204D1F3
:1055000022F070084A6842EA0802DFF89880DFF863
:105510009890DFF898A0984211D058450FD0B0422B
:105520000DD0B8420BD0604509D0A04207D040450D
:1055300005D0484503D0504501D0A84203D122F4FC
:105540004076CA6832434E6922F0800232430260DC
:105550008A68C2620A688262984209D0A04207D073
:10556000404505D0484503D0504501D0A84201D15F
:1055700009690163012141610169C90703D001691A
:1055800021F001010161BDE8F08F0000002C014015
:105590000004004000080040000C004000340140BE
:1055A00000500140004001400044014000480140DB
:1055B00010B501F01F030121046A99408C43046275
:1055C000016A9A401143016210BD10B5846842EA35
:1055D000032224F47F440A432243826010BD00006A
:1055E0008268034B1A400A4342F00701816070470A
:1055F0008FFFCFFF2DE9F047056A026A22F0010212
:105600000262436882691F4C25F0020522400C6843
:1056100022F0030214438A681C4E2A431A4D1C4F81
:10562000DFF870C0DFF87090DFF870A0A84209D0F2
:10563000B04207D0B84205D0604503D0484501D0FC
:10564000504506D122F00808CA6842EA080222F052
:105650000402A84209D0B04207D0B84205D0604544
:1056600003D0484501D0504505D14D6923F440731E
:105670001D438B692B434360846149684163026227
:10568000BDE8F0878FFFFEFF002C01400034014091
:1056900000400140004401400048014000500140EA
:1056A000F0B5056A026A22F010020262426883695C
:1056B0001C4C1E4E23400C6823F4407343EA042420
:1056C00025F020038D681A4F43EA0513164DA842B2
:1056D00003D0B04201D0B84207D1D1F80CC023F0BA
:1056E000800343EA0C1323F04003A8420CD0B042DD
:1056F0000AD0104DA84207D00F4DA84204D00F4D3C
:10570000A84201D0B84207D14D6922F4406242EA72
:1057100085028D6942EA850242608461496881633D
:105720000362F0BDFF8FFFFE002C014000340140FA
:105730000050014000400140004401400048014049
:10574000F0B5056A026A22F4807202624368C26997
:105750001C4C1E4E22400C6822F00302144325F418
:1057600000728D681A4F42EA0522174DA84203D0F5
:10577000B04201D0B84207D1D1F80CC022F4006287
:1057800042EA0C2222F48062A8420CD0B0420AD035
:10579000104DA84207D0104DA84204D00F4DA8428A
:1057A00001D0B84207D14D6923F4405343EA0513B1
:1057B0008D6943EA05134360C4614968C1630262AD
:1057C000F0BD00008FFFFEFF002C014000340140BF
:1057D00000500140004001400044014000480140A9
:1057E000F0B5056A026A22F4805202624268C36917
:1057F0001C4C1E4E23400C6823F4407343EA0424DF
:1058000025F400538D681A4F43EA0533164DA8421C
:1058100003D0B04201D0B84207D1D1F80CC023F474
:10582000004343EA0C3323F48043A8420CD0B04237
:105830000AD0104DA84207D00F4DA84204D00F4DFA
:10584000A84201D0B84207D14D6922F4404242EA51
:1058500085128D6942EA85124260C461496801641B
:105860000362F0BDFF8FFFFE002C014000340140B9
:105870000050014000400140004401400048014008
:1058800030B5056A026A22F4803202624268036D12
:10589000124C23400C681C4325F400330D8943EA65
:1058A00005430F4DA8420ED00E4DA8420BD00E4D11
:1058B000A84208D00D4DA84205D00D4DA84202D0F7
:1058C0000C4DA84204D14D6922F4803242EA0522EF
:1058D0004260046549688164036230BD8FFFFEFF4A
:1058E000002C0140003401400040014000440140D0
:1058F000004801400050014030B5046A026A22F4B9
:10590000801202624268036D134D24F400142B4090
:105910000D6843EA05230D8944EA05540F4DA8425A
:105920000ED00F4DA8420BD00E4DA84208D00E4D00
:10593000A84205D00D4DA84202D00D4DA84204D179
:105940004D6922F4802242EA85224260036549685B
:10595000C164046230BD0000FF8FFFFE002C0140D7
:105960000034014000400140004401400048014033
:105970000050014010B5036A046A24F00104046277
:10598000846924F0F00444EA021423F00A020A4372
:105990008461026210BD10B5036A046A24F0100429
:1059A0000462846923F0A00324F4704444EA0232C0
:1059B00043EA01118261016210BD000030B5416E01
:1059C000B9B1026891689268C1F342610B4B520F02
:1059D0009C5CE50003F10804A25CB5FBF2F2A0F8C0
:1059E0006A205A5C615CD200B2FBF1F1A0F8681049
:1059F00030BD0121A0F86A10F8E7000060700008CF
:105A000090F82810090706D501684A68836B22F4CC
:105A100000421A434A6090F82810C90706D001686E
:105A20004A68C36A22F400321A434A6090F8281088
:105A3000890706D501684A68036B22F480321A434D
:105A40004A6090F82810490706D501684A68436BF8
:105A500022F480221A434A6090F82810C90606D51D
:105A600001688A68C36B22F480521A438A6090F8F6
:105A70002810890606D501688A68036C22F4005252
:105A80001A438A6090F82810490611D501684A68BF
:105A9000436C22F480121A434A60416CB1F5801FB6
:105AA00006D101684A68836C22F4C0021A434A6036
:105AB00090F82810090606D501684A68C06C22F4DF
:105AC000002202434A6070472DE9F843002604464D
:105AD000C0F89060FCF730FB8046206800684FF00B
